{
  "contractName": "ArtWarehouse",
  "abi": [
    {
      "constant": true,
      "inputs": [],
      "name": "picturesCount",
      "outputs": [
        {
          "name": "",
          "type": "int256"
        }
      ],
      "payable": false,
      "stateMutability": "view",
      "type": "function"
    },
    {
      "constant": true,
      "inputs": [
        {
          "name": "",
          "type": "int256"
        }
      ],
      "name": "pictureList",
      "outputs": [
        {
          "name": "id",
          "type": "int256"
        },
        {
          "name": "link",
          "type": "string"
        },
        {
          "name": "worth",
          "type": "int256"
        },
        {
          "name": "owner",
          "type": "address"
        }
      ],
      "payable": false,
      "stateMutability": "view",
      "type": "function"
    },
    {
      "inputs": [],
      "payable": false,
      "stateMutability": "nonpayable",
      "type": "constructor"
    },
    {
      "anonymous": false,
      "inputs": [
        {
          "indexed": true,
          "name": "sid",
          "type": "address"
        },
        {
          "indexed": false,
          "name": "pictureId",
          "type": "int256"
        },
        {
          "indexed": false,
          "name": "link",
          "type": "string"
        }
      ],
      "name": "pictureUpload",
      "type": "event"
    },
    {
      "constant": false,
      "inputs": [
        {
          "name": "link",
          "type": "string"
        }
      ],
      "name": "addPicture",
      "outputs": [],
      "payable": false,
      "stateMutability": "nonpayable",
      "type": "function"
    },
    {
      "constant": false,
      "inputs": [
        {
          "name": "pictureID",
          "type": "int256"
        },
        {
          "name": "worth",
          "type": "int256"
        }
      ],
      "name": "setWorth",
      "outputs": [],
      "payable": false,
      "stateMutability": "nonpayable",
      "type": "function"
    }
  ],
  "bytecode": "0x608060405234801561001057600080fd5b5060006001819055506108c5806100286000396000f3fe608060405234801561001057600080fd5b506004361061004c5760003560e01c806319f1a5f81461005157806354bb5ab01461006f578063e8deb9a61461012a578063fd1781c114610162575b600080fd5b61005961024a565b6040518082815260200191505060405180910390f35b6101286004803603602081101561008557600080fd5b81019080803590602001906401000000008111156100a257600080fd5b8201836020820111156100b457600080fd5b803590602001918460018302840111640100000000831117156100d657600080fd5b91908080601f016020809104026020016040519081016040528093929190818152602001838380828437600081840152601f19601f820116905080830192505050505050509192919290505050610250565b005b6101606004803603604081101561014057600080fd5b810190808035906020019092919080359060200190929190505050610550565b005b61018e6004803603602081101561017857600080fd5b810190808035906020019092919050505061060c565b60405180858152602001806020018481526020018373ffffffffffffffffffffffffffffffffffffffff1673ffffffffffffffffffffffffffffffffffffffff168152602001828103825285818151815260200191508051906020019080838360005b8381101561020c5780820151818401526020810190506101f1565b50505050905090810190601f1680156102395780820380516001836020036101000a031916815260200191505b509550505050505060405180910390f35b60015481565b600080905060008090505b6001548113610339576001151561031f846000808581526020019081526020016000206001018054600181600116156101000203166002900480601f0160208091040260200160405190810160405280929190818152602001828054600181600116156101000203166002900480156103155780601f106102ea57610100808354040283529160200191610315565b820191906000526020600020905b8154815290600101906020018083116102f857829003601f168201915b50505050506106f4565b1515141561032c57600191505b808060010191505061025b565b5060001515811515146103b4576040517f08c379a00000000000000000000000000000000000000000000000000000000081526004018080602001828103825260178152602001807f42696c64206265726569747320766f7268616e64656e2100000000000000000081525060200191505060405180910390fd5b60016000815480929190600101919050555060405180608001604052806001548152602001838152602001600081526020013373ffffffffffffffffffffffffffffffffffffffff16815250600080600154815260200190815260200160002060008201518160000155602082015181600101908051906020019061043a9291906107f4565b506040820151816002015560608201518160030160006101000a81548173ffffffffffffffffffffffffffffffffffffffff021916908373ffffffffffffffffffffffffffffffffffffffff1602179055509050503373ffffffffffffffffffffffffffffffffffffffff167fc1b7fe6310855c6a92072ecd3ee01cd79f26c23842aede933442f86f679f61ed600154846040518083815260200180602001828103825283818151815260200191508051906020019080838360005b838110156105115780820151818401526020810190506104f6565b50505050905090810190601f16801561053e5780820380516001836020036101000a031916815260200191505b50935050505060405180910390a25050565b60008213801561056257506001548213155b801561056f5750600a8113155b801561057c575060008112155b6105ee576040517f08c379a00000000000000000000000000000000000000000000000000000000081526004018080602001828103825260118152602001807f4944206e696368742067c3bc6c7469672e00000000000000000000000000000081525060200191505060405180910390fd5b80600080848152602001908152602001600020600201819055505050565b6000602052806000526040600020600091509050806000015490806001018054600181600116156101000203166002900480601f0160208091040260200160405190810160405280929190818152602001828054600181600116156101000203166002900480156106be5780601f10610693576101008083540402835291602001916106be565b820191906000526020600020905b8154815290600101906020018083116106a157829003601f168201915b5050505050908060020154908060030160009054906101000a900473ffffffffffffffffffffffffffffffffffffffff16905084565b6000816040516020018082805190602001908083835b6020831061072d578051825260208201915060208101905060208303925061070a565b6001836020036101000a03801982511681845116808217855250505050505090500191505060405160208183030381529060405280519060200120836040516020018082805190602001908083835b6020831061079f578051825260208201915060208101905060208303925061077c565b6001836020036101000a0380198251168184511680821785525050505050509050019150506040516020818303038152906040528051906020012014156107e957600190506107ee565b600090505b92915050565b828054600181600116156101000203166002900490600052602060002090601f016020900481019282601f1061083557805160ff1916838001178555610863565b82800160010185558215610863579182015b82811115610862578251825591602001919060010190610847565b5b5090506108709190610874565b5090565b61089691905b8082111561089257600081600090555060010161087a565b5090565b9056fea165627a7a72305820707abab54c4403a8b8b484260106dfdd2ae13ac9f1a97e474f3d52c95dd11d010029",
  "source": "pragma solidity >=0.4.21 <0.6.0;\n\ncontract ArtWarehouse {\n\n    // define a Pictureobject. Each picture will be stored as this on the blockchain\n    struct Picture {\n        int id;\n        string link;\n        int worth;\n        address owner;\n    }\n\n    // define an associated array for listing all pictures in dependece of the pictureId\n    mapping(int => Picture) public pictureList;\n    // Store Pictures Count\n    int public picturesCount;\n\n    // constructor. Will be called when the SmartContract is migrated to the Blockchain only once\n    constructor () public {\n        picturesCount = 0;\n    }\n\n    // function for adding a picture to the blockchain. Will be called from the app.js\n    function addPicture (string memory link) public {\n        // boolean used to determine if a picture has already been uploaded\n        bool used = false;\n        // iterate through all stored pictures\n        for (int i = 0; i <= picturesCount; i++) {\n            // compare the names of a picture\n            if(compareLinks(link, pictureList[i].link) == true){\n                // if picture is already existing set boolean to true\n                used = true;\n            }\n        }\n\n        // require the boolean used to be false. Otherwise the picture won't be stored a failure will be returned\n        require(used == false, \"Bild bereits vorhanden!\");\n\n        // if picture is valid the pictureCount will be added by 1\n        picturesCount ++;\n\n        // the new picture will be written to the blockchain with the new picturesCount value as ID\n        pictureList[picturesCount] = Picture(picturesCount, link, 0, msg.sender);\n\n        // Event emmitten\n        emit pictureUpload(msg.sender, picturesCount, link);\n    }\n\n    // function for setting the worth of a picture. Will be called from app.js\n    function setWorth (int pictureID, int worth) public {\n        // require a valid picture\n        require((pictureID > 0 && pictureID <= picturesCount && worth <= 10 && worth >= 0), \"ID nicht gültig.\");\n\n        // update pictures worth\n        pictureList[pictureID].worth = worth;\n    }\n\n    // function for comparing the pictures names. Strings can't be compared in without hashing the strings\n    function compareLinks (string memory a, string memory b) private pure returns (bool) {\n        if(keccak256(abi.encodePacked(a)) == keccak256(abi.encodePacked(b))){\n            return true;\n        }else{\n            return false;\n        }\n    }\n\n    // this event will be emitted when a new picture has been added. Will be watched by the oraclePattern in app.js, which will then be fired\n    event pictureUpload (address indexed sid, int pictureId, string link);\n}",
  "sourcePath": "/Users/alexwrede/Desktop/DHBW/DHBW 2019/Intergrationsseminar/CrocKI/SmartContract/contracts/ArtWarehouse.sol",
  "compiler": {
    "name": "solc",
    "version": "0.5.8+commit.23d335f2.Emscripten.clang"
  },
  "schemaVersion": "3.0.11",
  "updatedAt": "2019-07-17T16:09:31.368Z",
  "devdoc": {
    "methods": {}
  },
  "userdoc": {
    "methods": {}
  }
}