{
  "contractName": "ArtWarehouse",
  "abi": [
    {
      "constant": true,
      "inputs": [],
      "name": "picturesCount",
      "outputs": [
        {
          "name": "",
          "type": "uint256"
        }
      ],
      "payable": false,
      "stateMutability": "view",
      "type": "function"
    },
    {
      "constant": true,
      "inputs": [
        {
          "name": "",
          "type": "uint256"
        }
      ],
      "name": "pictureList",
      "outputs": [
        {
          "name": "id",
          "type": "uint256"
        },
        {
          "name": "link",
          "type": "string"
        },
        {
          "name": "worth",
          "type": "uint256"
        },
        {
          "name": "owner",
          "type": "address"
        }
      ],
      "payable": false,
      "stateMutability": "view",
      "type": "function"
    },
    {
      "inputs": [],
      "payable": false,
      "stateMutability": "nonpayable",
      "type": "constructor"
    },
    {
      "anonymous": false,
      "inputs": [
        {
          "indexed": true,
          "name": "_pictureId",
          "type": "uint256"
        },
        {
          "indexed": false,
          "name": "link",
          "type": "string"
        }
      ],
      "name": "pictureUpload",
      "type": "event"
    },
    {
      "constant": false,
      "inputs": [
        {
          "name": "link",
          "type": "string"
        }
      ],
      "name": "addPicture",
      "outputs": [],
      "payable": false,
      "stateMutability": "nonpayable",
      "type": "function"
    },
    {
      "constant": false,
      "inputs": [
        {
          "name": "pictureID",
          "type": "uint256"
        },
        {
          "name": "worth",
          "type": "uint256"
        }
      ],
      "name": "setWorth",
      "outputs": [],
      "payable": false,
      "stateMutability": "nonpayable",
      "type": "function"
    }
  ],
  "bytecode": "0x608060405234801561001057600080fd5b5060006001819055506105e6806100286000396000f3fe608060405234801561001057600080fd5b506004361061004c5760003560e01c806319f1a5f8146100515780633062e4dd1461006f57806352f16ef11461015757806354bb5ab01461018f575b600080fd5b61005961024a565b6040518082815260200191505060405180910390f35b61009b6004803603602081101561008557600080fd5b8101908080359060200190929190505050610250565b60405180858152602001806020018481526020018373ffffffffffffffffffffffffffffffffffffffff1673ffffffffffffffffffffffffffffffffffffffff168152602001828103825285818151815260200191508051906020019080838360005b838110156101195780820151818401526020810190506100fe565b50505050905090810190601f1680156101465780820380516001836020036101000a031916815260200191505b509550505050505060405180910390f35b61018d6004803603604081101561016d57600080fd5b810190808035906020019092919080359060200190929190505050610338565b005b610248600480360360208110156101a557600080fd5b81019080803590602001906401000000008111156101c257600080fd5b8201836020820111156101d457600080fd5b803590602001918460018302840111640100000000831117156101f657600080fd5b91908080601f016020809104026020016040519081016040528093929190818152602001838380828437600081840152601f19601f820116905080830192505050505050509192919290505050610398565b005b60015481565b6000602052806000526040600020600091509050806000015490806001018054600181600116156101000203166002900480601f0160208091040260200160405190810160405280929190818152602001828054600181600116156101000203166002900480156103025780601f106102d757610100808354040283529160200191610302565b820191906000526020600020905b8154815290600101906020018083116102e557829003601f168201915b5050505050908060020154908060030160009054906101000a900473ffffffffffffffffffffffffffffffffffffffff16905084565b6001821461034557600080fd5b60008211801561035757506001548211155b80156103645750600a8111155b8015610371575060008110155b61037a57600080fd5b80600080848152602001908152602001600020600201819055505050565b60016000815480929190600101919050555060405180608001604052806001548152602001828152602001600081526020013373ffffffffffffffffffffffffffffffffffffffff16815250600080600154815260200190815260200160002060008201518160000155602082015181600101908051906020019061041e929190610515565b506040820151816002015560608201518160030160006101000a81548173ffffffffffffffffffffffffffffffffffffffff021916908373ffffffffffffffffffffffffffffffffffffffff1602179055509050506001547fd70519efc1931bdfa431d9d7ad93b98dc38eef86300dcba4101e25df9acd66cd826040518080602001828103825283818151815260200191508051906020019080838360005b838110156104d85780820151818401526020810190506104bd565b50505050905090810190601f1680156105055780820380516001836020036101000a031916815260200191505b509250505060405180910390a250565b828054600181600116156101000203166002900490600052602060002090601f016020900481019282601f1061055657805160ff1916838001178555610584565b82800160010185558215610584579182015b82811115610583578251825591602001919060010190610568565b5b5090506105919190610595565b5090565b6105b791905b808211156105b357600081600090555060010161059b565b5090565b9056fea165627a7a723058206bcbc80a40c8d0e07b0e493a11c8b459d7093fc62d86933e0d26b290813aef710029",
  "source": "pragma solidity >=0.4.21 <0.6.0;\n\ncontract ArtWarehouse {\n\n    struct Picture {\n        uint id;\n        string link;\n        uint worth;\n        address owner;\n    }\n\n    // Read/write Pictures\n    mapping(uint => Picture) public pictureList;\n    // Store Pictures Count\n    uint public picturesCount;\n\n    constructor () public {\n        picturesCount = 0;\n    }\n\n    function addPicture (string memory link) public {\n        picturesCount ++;\n        pictureList[picturesCount] = Picture(picturesCount, link, 0, msg.sender);\n\n        // Event emmitten\n        emit pictureUpload(picturesCount, link);\n    }\n\n    function setWorth (uint pictureID, uint worth) public {\n        // require that they haven't voted before\n        //require(msg.sender == \"abcAdresse\");\n        require(pictureID == 1);\n\n        // require a valid candidate\n        require(pictureID > 0 && pictureID <= picturesCount && worth <= 10 && worth >= 0);\n\n        // update candidate vote Count\n        pictureList[pictureID].worth = worth;\n    }\n\n    // Dieses Event wird emitted und vom Backend beobachet\n    event pictureUpload (uint indexed _pictureId, string link);\n}",
  "sourcePath": "/Users/alexwrede/Desktop/DHBW/DHBW 2019/Intergrationsseminar/CrocKI/SmartContract/contracts/ArtWarehouse.sol",
  "compiler": {
    "name": "solc",
    "version": "0.5.8+commit.23d335f2.Emscripten.clang"
  },
  "schemaVersion": "3.0.11",
  "updatedAt": "2019-06-18T13:55:37.121Z",
  "devdoc": {
    "methods": {}
  },
  "userdoc": {
    "methods": {}
  }
}