{
  "contractName": "ArtWarehouse",
  "abi": [
    {
      "constant": true,
      "inputs": [],
      "name": "picturesCount",
      "outputs": [
        {
          "name": "",
          "type": "int256"
        }
      ],
      "payable": false,
      "stateMutability": "view",
      "type": "function"
    },
    {
      "constant": true,
      "inputs": [
        {
          "name": "",
          "type": "int256"
        }
      ],
      "name": "pictureList",
      "outputs": [
        {
          "name": "id",
          "type": "int256"
        },
        {
          "name": "link",
          "type": "string"
        },
        {
          "name": "worth",
          "type": "int256"
        },
        {
          "name": "owner",
          "type": "address"
        }
      ],
      "payable": false,
      "stateMutability": "view",
      "type": "function"
    },
    {
      "inputs": [],
      "payable": false,
      "stateMutability": "nonpayable",
      "type": "constructor"
    },
    {
      "anonymous": false,
      "inputs": [
        {
          "indexed": true,
          "name": "sid",
          "type": "address"
        },
        {
          "indexed": false,
          "name": "pictureId",
          "type": "int256"
        },
        {
          "indexed": false,
          "name": "link",
          "type": "string"
        }
      ],
      "name": "pictureUpload",
      "type": "event"
    },
    {
      "constant": false,
      "inputs": [
        {
          "name": "link",
          "type": "string"
        }
      ],
      "name": "addPicture",
      "outputs": [],
      "payable": false,
      "stateMutability": "nonpayable",
      "type": "function"
    },
    {
      "constant": false,
      "inputs": [
        {
          "name": "pictureID",
          "type": "int256"
        },
        {
          "name": "worth",
          "type": "int256"
        }
      ],
      "name": "setWorth",
      "outputs": [],
      "payable": false,
      "stateMutability": "nonpayable",
      "type": "function"
    }
  ],
  "bytecode": "0x608060405234801561001057600080fd5b5060006001819055506106d6806100286000396000f3fe608060405234801561001057600080fd5b506004361061004c5760003560e01c806319f1a5f81461005157806354bb5ab01461006f578063e8deb9a61461012a578063fd1781c114610162575b600080fd5b61005961024a565b6040518082815260200191505060405180910390f35b6101286004803603602081101561008557600080fd5b81019080803590602001906401000000008111156100a257600080fd5b8201836020820111156100b457600080fd5b803590602001918460018302840111640100000000831117156100d657600080fd5b91908080601f016020809104026020016040519081016040528093929190818152602001838380828437600081840152601f19601f820116905080830192505050505050509192919290505050610250565b005b6101606004803603604081101561014057600080fd5b8101908080359060200190929190803590602001909291905050506103eb565b005b61018e6004803603602081101561017857600080fd5b810190808035906020019092919050505061051d565b60405180858152602001806020018481526020018373ffffffffffffffffffffffffffffffffffffffff1673ffffffffffffffffffffffffffffffffffffffff168152602001828103825285818151815260200191508051906020019080838360005b8381101561020c5780820151818401526020810190506101f1565b50505050905090810190601f1680156102395780820380516001836020036101000a031916815260200191505b509550505050505060405180910390f35b60015481565b60016000815480929190600101919050555060405180608001604052806001548152602001828152602001600081526020013373ffffffffffffffffffffffffffffffffffffffff1681525060008060015481526020019081526020016000206000820151816000015560208201518160010190805190602001906102d6929190610605565b506040820151816002015560608201518160030160006101000a81548173ffffffffffffffffffffffffffffffffffffffff021916908373ffffffffffffffffffffffffffffffffffffffff1602179055509050503373ffffffffffffffffffffffffffffffffffffffff167fc1b7fe6310855c6a92072ecd3ee01cd79f26c23842aede933442f86f679f61ed600154836040518083815260200180602001828103825283818151815260200191508051906020019080838360005b838110156103ad578082015181840152602081019050610392565b50505050905090810190601f1680156103da5780820380516001836020036101000a031916815260200191505b50935050505060405180910390a250565b60018214610461576040517f08c379a000000000000000000000000000000000000000000000000000000000815260040180806020018281038252600b8152602001807f4944206e6963687420312e00000000000000000000000000000000000000000081525060200191505060405180910390fd5b60008213801561047357506001548213155b80156104805750600a8113155b801561048d575060008112155b6104ff576040517f08c379a00000000000000000000000000000000000000000000000000000000081526004018080602001828103825260118152602001807f4944206e696368742067c3bc6c7469672e00000000000000000000000000000081525060200191505060405180910390fd5b80600080848152602001908152602001600020600201819055505050565b6000602052806000526040600020600091509050806000015490806001018054600181600116156101000203166002900480601f0160208091040260200160405190810160405280929190818152602001828054600181600116156101000203166002900480156105cf5780601f106105a4576101008083540402835291602001916105cf565b820191906000526020600020905b8154815290600101906020018083116105b257829003601f168201915b5050505050908060020154908060030160009054906101000a900473ffffffffffffffffffffffffffffffffffffffff16905084565b828054600181600116156101000203166002900490600052602060002090601f016020900481019282601f1061064657805160ff1916838001178555610674565b82800160010185558215610674579182015b82811115610673578251825591602001919060010190610658565b5b5090506106819190610685565b5090565b6106a791905b808211156106a357600081600090555060010161068b565b5090565b9056fea165627a7a72305820b398370ebaa5f7e62911d6721e9ec36d0a5806a6ec06fc214216520ab8708a950029",
  "source": "pragma solidity >=0.4.21 <0.6.0;\n\ncontract ArtWarehouse {\n\n    struct Picture {\n        int id;\n        string link;\n        int worth;\n        address owner;\n    }\n\n    // Read/write Pictures\n    mapping(int => Picture) public pictureList;\n    // Store Pictures Count\n    int public picturesCount;\n\n    constructor () public {\n        picturesCount = 0;\n    }\n\n    function addPicture (string memory link) public {\n        picturesCount ++;\n        pictureList[picturesCount] = Picture(picturesCount, link, 0, msg.sender);\n\n        // Event emmitten\n        emit pictureUpload(msg.sender, picturesCount, link);\n    }\n\n    function setWorth (int pictureID, int worth) public {\n        // require that they haven't voted before\n        //require(msg.sender == \"abcAdresse\");\n        require(pictureID == 1, \"ID nicht 1.\");\n\n        // require a valid candidate\n        require((pictureID > 0 && pictureID <= picturesCount && worth <= 10 && worth >= 0), \"ID nicht gültig.\");\n\n        // update candidate vote Count\n        pictureList[pictureID].worth = worth;\n    }\n\n    // Dieses Event wird emitted und vom Backend beobachet\n    event pictureUpload (address indexed sid, int pictureId, string link);\n}",
  "sourcePath": "/Users/alexwrede/Desktop/DHBW/DHBW 2019/Intergrationsseminar/CrocKI/SmartContract/contracts/ArtWarehouse.sol",
  "compiler": {
    "name": "solc",
    "version": "0.5.8+commit.23d335f2.Emscripten.clang"
  },
  "schemaVersion": "3.0.11",
  "updatedAt": "2019-06-24T17:28:43.364Z",
  "devdoc": {
    "methods": {}
  },
  "userdoc": {
    "methods": {}
  }
}